:100000000C9463000C948B000C948B000C940105F1
:100010000C9401050C9401050C948B000C94410484
:100020000C948B000C948B000C948B000C948B0024
:100030000C948B000C948B000C948B000C948B0014
:100040000C94F7030C948B000C94C5030C949F0341
:100050000C948B000C948B000C948B000C948B00F4
:100060000C948B000C948B000000000024002700EF
:100070002A0000000008000201000003040700003D
:1000800000000000000000000000230026002900FE
:1000900000000000250028002B00040404040404D0
:1000A0000404020202020202030303030303010227
:1000B00004081020408001020408102001020408F6
:1000C0001020A7053C0E11241FBECFEFD8E0DEBFE5
:1000D000CDBF11E0A0E0B1E0E8E5F2E202C005909A
:1000E0000D92A039B107D9F723E0A0E9B1E001C032
:1000F0001D92A637B207E1F710E0C2E6D0E004C0D7
:100100002197FE010E940A11C136D107C9F70E944A
:1001100057060C941F110C940000AF92BF92CF921F
:10012000DF92EF92FF920F931F93CF93DF936C01B7
:100130007B018B01040F151FEB015E01AE18BF0898
:10014000C017D10759F06991D601ED91FC9101904A
:10015000F081E02DC6010995892B79F7C501DF9162
:10016000CF911F910F91FF90EF90DF90CF90BF90B4
:10017000AF900895CF92DF92EF92FF92CF93DF93EB
:10018000EC01072E000C880B990B0E94740F6B0179
:100190007C0120E030E040E45FE30E94241020E096
:1001A00030E048E452E40E94CA0E0E943C0FC61799
:1001B000D707D4F020E030E040EA5FE3C701B601A2
:1001C0000E94241020E030E048E452E40E94CA0E6D
:1001D00020E030E040E85FE30E94590E0E943C0FAF
:1001E00021E06C177D070CF420E0822F90E0DF9176
:1001F000CF91FF90EF90DF90CF9008958F929F92D4
:10020000AF92BF92CF92DF92EF92FF920F931F9324
:10021000CF93DF93FC0120813181E091EA01F091DD
:10022000EB0101E010E02E173F070CF043C0D901AD
:10023000AA0FBB1FE091E801F091E901EA0FFB1F53
:10024000A080B1808901009510950170112720FDD3
:1002500023C02CE93FEFEA016B017C014901840EC8
:10026000951EB401C5010E94BA00892BC1F48C0E01
:100270009D1EB401C5010E94BA00892B49F5BE013B
:10028000680D791DC5010E94BA0023E030E0892B7A
:1002900041F40FEF1FEF0EC024E630E0DCCF21E089
:1002A00030E0F601808191810196821793079CF4DA
:1002B00091838083C801DF91CF911F910F91FF90AF
:1002C000EF90DF90CF90BF90AF909F908F90089568
:1002D00022E030E0E6CF11821082F7018081918127
:1002E0000196E6CFFC01538D448D252F30E0842FFD
:1002F00090E0821B930B541710F0CF96089501974E
:100300000895FC01918D828D981761F0A28DAE0F3A
:10031000BF2FB11D5D968C91928D9F5F9F73928FC1
:1003200090E008958FEF9FEF0895FC01918D828DED
:10033000981731F0828DE80FF11D858D90E00895BA
:100340008FEF9FEF0895FC01918D228D892F90E012
:10035000805C9F4F821B91098F73992708958CEEC3
:1003600091E00E94A30121E0892B09F420E0822F73
:10037000089580E090E0892B29F00E94AF0181115F
:100380000C9400000895FC01A48DA80FB92FB11D95
:10039000A35ABF4F2C91848D90E001968F739927BB
:1003A000848FA689B7892C93A089B1898C91837099
:1003B00080648C93938D848D981306C00288F38992
:1003C000E02D80818F7D80830895EF92FF920F93BF
:1003D0001F93CF93DF93EC0181E0888F9B8D8C8DF1
:1003E00098131AC0E889F989808185FF15C09FB7E5
:1003F000F894EE89FF896083E889F98980818370A8
:10040000806480839FBF81E090E0DF91CF911F9156
:100410000F91FF90EF900895F62E0B8D10E00F5F77
:100420001F4F0F731127E02E8C8D8E110CC00FB64D
:1004300007FCFACFE889F989808185FFF5CFCE01E5
:100440000E94C301F1CFEB8DEC0FFD2FF11DE35A9C
:10045000FF4FF0829FB7F8940B8FEA89FB89808168
:100460008062CFCFCF93DF93EC01888D8823B9F0E2
:10047000AA89BB89E889F9898C9185FD03C08081AF
:1004800086FD0DC00FB607FCF7CF8C9185FFF2CF2C
:10049000808185FFEDCFCE010E94C301E9CFDF91BE
:1004A000CF910895833081F028F4813099F0823023
:1004B000A9F008958730A9F08830C9F08430B1F4EC
:1004C000809180008F7D03C0809180008F77809322
:1004D0008000089584B58F7784BD089584B58F7D9D
:1004E000FBCF8091B0008F778093B000089580910A
:1004F000B0008F7DF9CFCF93DF9390E0FC01E25500
:10050000FF4F249186569F4FFC0184918823D1F0A0
:1005100090E0880F991FFC01E859FF4FA591B49115
:10052000FC01E057FF4FC591D49161110EC09FB7F8
:10053000F8948C91E22FE0958E238C932881E2230E
:10054000E8839FBFDF91CF9108958FB7F894EC9126
:10055000E22BEC938FBFF6CF3FB7F8948091D50193
:100560009091D601A091D701B091D80126B5A89B52
:1005700005C02F3F19F00196A11DB11D3FBFBA2F35
:10058000A92F982F8827BC01CD01620F711D811DF5
:10059000911D42E0660F771F881F991F4A95D1F77A
:1005A00008952091DB013091DC012817390771F49F
:1005B0009091D9018091DA01981741F0E091D90129
:1005C000F0E0E057FE4F808190E008958FEF9FEFBD
:1005D00008950895EF92FF920F931F93CF93DF93A7
:1005E000DC015C96ED90FC905D97E114F10479F4E8
:1005F00081E090E013969C938E93129790E080E0B8
:10060000DF91CF911F910F91FF90EF900895519638
:10061000ED91FC91529750968C915097982F909510
:100620000FB75E962C915E97122F127021FD609588
:10063000F8942081112319F1282B2083E7012197B9
:10064000F1F728E0462F50E0308160FF1AC0382BC8
:100650003083E7012197F1F7BA017595679521502D
:1006600089F7112381F08081892380830FBF5C96F5
:100670008D919C910197F1F781E090E0C1CF292302
:10068000DCCF3923E5CF9081892BEFCF2091DB019F
:100690003091DC012817390771F48091DA0120913B
:1006A000D90190E0805C9F4F821B910960E470E06B
:1006B0000E94A110089590E080E008952091DB0150
:1006C0003091DC0128173907B9F49091D901809154
:1006D000DA01981789F0E091D901F0E0E057FE4F78
:1006E00080812091D90130E02F5F3F4F2F73332756
:1006F0002093D90190E008958FEF9FEF089590E047
:1007000080E00895CF93DF93FC0101900020E9F78A
:100710003197AF01481B590BBC018CEE91E00E9450
:100720008D00EC0142E050E064E271E08CEE91E07B
:100730000E948D008C0F9D1FDF91CF9108951F9215
:100740000F920FB60F9211242F933F934F935F9305
:100750006F937F938F939F93AF93BF93EF93FF9389
:100760008CEE91E00E94C301FF91EF91BF91AF9198
:100770009F918F917F916F915F914F913F912F91B9
:100780000F900FBE0F901F9018951F920F920FB6EB
:100790000F9211242F938F939F93EF93FF93E091E8
:1007A000FC01F091FD018081E0910202F0910302D1
:1007B00082FD1BC09081809105028F5F8F73209115
:1007C0000602821741F0E0910502F0E0E451FE4F8D
:1007D000958F80930502FF91EF919F918F912F91BB
:1007E0000F900FBE0F901F9018958081F4CF1F922D
:1007F0000F920FB60F9211242F933F938F939F93D5
:10080000AF93BF938091D1019091D201A091D30178
:10081000B091D4013091D00123E0230F2D3758F54A
:100820000196A11DB11D2093D0018093D101909319
:10083000D201A093D301B093D4018091D5019091BE
:10084000D601A091D701B091D8010196A11DB11D8B
:100850008093D5019093D601A093D701B093D8018E
:10086000BF91AF919F918F913F912F910F900FBEAC
:100870000F901F90189526E8230F0296A11DB11D19
:10088000D2CF1F920F920FB60F9211242F933F9346
:100890004F935F936F937F938F939F93AF93BF9388
:1008A000CF93DF93EF93FF932091890230E0F9011A
:1008B000EE58FF4F8491F901E255FF4FD491F901B1
:1008C000E656FF4FC491CC2379F081110E94520269
:1008D000EC2FF0E0EE0FFF1FEA57FF4FA591B49108
:1008E000EC91ED2381E009F480E020918C023091BD
:1008F0008D022F5F3F4F30938D0220938C02909199
:100900005603943618F095E090938A0290918A02EB
:10091000933009F44CC0E0F4923011F190918B02C5
:10092000992319F081116BC02D9AFF91EF91DF91FE
:10093000CF91BF91AF919F918F917F916F915F9177
:100940004F913F912F910F900FBE0F901F901895D0
:10095000943009F448C0953009F78111DFCF09C000
:100960008111DCCF20918C0230918D02243631052B
:1009700028F410928D0210928C02D0CF1092560360
:10098000E091560391E09E0F90935603F0E0209182
:100990008C0230918D02EE0FFF1FE757FD4F36831B
:1009A000258310928D0210928C0293E019C0813041
:1009B00009F0B4CFE091560391E09E0F9093560357
:1009C000F0E020918C0230918D02EE0FFF1FE7576F
:1009D000FD4F3683258310928D0210928C0294E095
:1009E00090938A029BCF882359F220918C023091F8
:1009F0008D022536310508F491CF95E0F1CF2D9881
:100A000094CF1F920F920FB60F9211242F933F9302
:100A10004F935F936F937F938F939F93AF93BF9306
:100A2000EF93FF93E091DB01F091DC01309749F007
:100A3000A685B7858585968D91FF14C09C918923E5
:100A4000A1F4FF91EF91BF91AF919F918F917F9111
:100A50006F915F914F913F912F910F900FBE0F902B
:100A60001F9018959C91892361F7A389B4899C9163
:100A70008589809589238C93868997890197F1F7D9
:100A8000608D718DA685B785558538E020E0CB0156
:100A90000197F1F7822F90E095958795282F4C913B
:100AA000452309F02068315091F7868D81FD20950E
:100AB0008091DA0190E001968F7399273091D901E6
:100AC000381799F0A091DA01B0E0A057BE4F2C93EF
:100AD0008093DA01828D938D0197F1F7A389B48910
:100AE0008C919589892B8C93ACCF868D8160868F74
:100AF000F1CF1F93CF93DF93282F30E0F901EE5809
:100B0000FF4F8491F901E255FF4FD491F901E65668
:100B1000FF4FC491CC23A9F0162F81110E945202DD
:100B2000EC2FF0E0EE0FFF1FE057FF4FA591B491BF
:100B30008FB7F894EC91111108C0D095DE23DC93A7
:100B40008FBFDF91CF911F910895DE2BF8CF1092C8
:100B5000EF011092EE0188EE93E0A0E0B0E0809308
:100B6000F0019093F101A093F201B093F30124E01E
:100B700031E03093ED012093EC0125EC30E030932F
:100B8000F9012093F80124EC30E03093FB0120932D
:100B9000FA0120EC30E03093FD012093FC0121ECC0
:100BA00030E03093FF012093FE0122EC30E03093DF
:100BB00001022093000226EC30E0309303022093E0
:100BC0000202109205021092060210920702109281
:100BD000080210925A031092590380935B0390937A
:100BE0005C03A0935D03B0935E0386E191E0909374
:100BF00058038093570310926E0310926D03109266
:100C0000700310926F03109272031092710310928E
:100C1000740310927303609175036E7F6D7F609310
:100C200075036695617081E0682788E00E94790508
:100C300061E088E00E947B02E6EBF0E0E491E09363
:100C40006703E2EAF0E0E491F0E0EE0FFF1FE05707
:100C5000FF4F85919491909369038093680360E0BE
:100C600087E00E947B028091750381FD04C061E0F2
:100C700087E00E94790587E080936303E5EBF0E06D
:100C8000E491E0936403E1EAF0E0E491F0E0EE0F38
:100C9000FF1FEA57FF4F85919491909366038093CD
:100CA00065038BE08093890210928B020895CF93A5
:100CB000DF93CDB7DEB72C970FB6F894DEBF0FBE2B
:100CC000CDBF789484B5826084BD84B5816084BDD5
:100CD00085B5826085BD85B5816085BD80916E00DA
:100CE000816080936E00109281008091810082600B
:100CF0008093810080918100816080938100809148
:100D000080008160809380008091B1008460809336
:100D1000B1008091B00081608093B00080917A0032
:100D2000846080937A0080917A00826080937A0058
:100D300080917A00816080937A0080917A00806847
:100D400080937A001092C10060E087E00E947B02ED
:100D500061E088E00E947B02E091FC01F091FD01DE
:100D600082E08083E091F801F091F9011082E09136
:100D7000FA01F091FB018FEC808310920402E09164
:100D80000002F091010286E08083E091FE01F09183
:100D9000FF01808180618083E091FE01F091FF017D
:100DA000808188608083E091FE01F091FF01808165
:100DB00080688083E091FE01F091FF0180818F7D4A
:100DC000808310927203109271031092700310923C
:100DD0006F0310926E0310926D038DE991E0909372
:100DE00074038093730390916303963108F047C0B6
:100DF0002DEB30E030936E0320936D032BE931E04F
:100E00003093700320936F032CE231E03093720330
:100E1000209371032091680084E0983048F031E01D
:100E20009E3008F430E081E001C0880F3A95EAF77F
:100E3000822B809368002DE630E0983050F02BE64E
:100E400030E09E3030F02CE630E0963110F030E0AB
:100E500020E030936B0320936A03292F30E0983011
:100E600008F0CFC081E001C0880F9A95EAF780931F
:100E70006C0380917303909174030197F1F7809153
:100E8000710390917203892B49F1E091DB01F0919C
:100E9000DC0123E0E735F20709F1309739F0A38947
:100EA000B4899C918589809589238C938091750361
:100EB0008E7F809375031092DA011092D90187E535
:100EC00093E09093DC018093DB01E0916A03F09161
:100ED0006B03808190916C03892B8083F89482E06E
:100EE0008093B0008093B10094E69093B300109289
:100EF000B20080937000789480938A021092560317
:100F00008091890260E00E947B028FEF8093DD0177
:100F100022242394312C44244A94542C32018EE808
:100F200092E09093E9018093E8018091560390E06C
:100F30009093EB018093EA0180918A02853009F059
:100F400040C68091900290919102885891098D3508
:100F5000910508F08FC080915603843009F05EC07F
:100F600080919202909193028097479708F056C023
:100F700080919402909195020997099708F04EC0CC
:100F80001092E7011092E6014092E2015092E301D3
:100F90006092E4017092E5013092DF012092DE015F
:100FA0008091E2019091E301A091E401B091E5010B
:100FB0008D39E2E69E07EFEFAE07B10509F40EC6E4
:100FC00008F064C58F3C20E392072FEFA207B1051C
:100FD00009F428C608F029C58F3EF0E19F07FFEF0E
:100FE000AF07B10509F430C608F00BC58D3F92403C
:100FF000AF4FB10509F4F8C586E891E00E9482037D
:10100000B0C59E3040F42850310981E001C0880FFE
:101010002A95EAF72CCF2E503109F7CF809156034D
:10102000843440F18091920290919302825491090C
:101030008E9700F590E080E040E050E0BA01FC01BE
:10104000EC56FD4F2081318129503109293031057D
:1010500088F4FC01EA56FD4F208131812651310987
:101060002131310530F1208131812650310927307D
:101070003105C0F1809156038A3108F468C080912F
:101080008E0290918F02843F914088F51092E70183
:101090001092E6014092E2015092E3016092E40175
:1010A0007092E50189E090E09093DF018093DE018A
:1010B00077CF440F551F661F771F41600496803815
:1010C000910509F0BCCFA0E2B0E0B093E701A09396
:1010D000E6014093E2015093E3016093E4017093D1
:1010E000E5015ACF440F551F661F771FE7CF809148
:1010F00090029091910285974B9748F5E9E8F2E0CC
:1011000082E090E040E050E0BA01A09156039C01DB
:101110002F5F3F4FA217130609F00CF4F2C0218590
:101120003285275031092730310508F0EAC0238580
:101130003485235131092F30310508F4D5C023857A
:1011400034852A5031092930310508F4D5C0809101
:1011500056038A3108F43FC080918E0290918F022D
:101160008032934008F492CF809190029091910246
:10117000C697869780F58091920290919302C697C8
:10118000869748F5E9E8F2E083E090E040E050E03F
:10119000BA01A09156039C012F5F3F4FA21713067F
:1011A00009F00CF4D8C0238534852C5031092B303C
:1011B000310508F0D0C025853685255231092B31FF
:1011C000310508F4BBC0258536852C5031092A30FD
:1011D000310508F4BBC080915603823238F180910A
:1011E0009002909191020697079700F5E9E8F2E0E6
:1011F00082E090E040E050E0BA01DC0111962091DD
:1012000056032A171B0609F00CF4D1C0218532853C
:101210002E5131092731310508F4B4C021853285BA
:101220002C5031092B30310508F4BBC08091560396
:101230008D3008F4EDC03C822B821A82198249E776
:1012400053E0BE016F5F7F4FCE0103960E94FE0008
:10125000892B09F0DDC049E753E0BE016F5F7F4F86
:10126000CE0103960E94FE00019709F0D1C049E724
:1012700053E0BE016F5F7F4FCE0103960E94FE00D8
:101280008C01892B09F0C4C0812C912C5401209130
:1012900056038B819C812817190609F00CF4A9C00C
:1012A00049E753E0BE016F5F7F4FCE0103960E9476
:1012B000FE007C0149E753E0BE016F5F7F4FCE0126
:1012C00003960E94FE0021E0E216F10409F088C0B6
:1012D000892B09F09DC0880C991CAA1CBB1C689422
:1012E00080F80F5F1F4FD3CF440F551F661F771F26
:1012F00041600296349609CF440F551F661F771F31
:10130000F8CF0197959587959093E7018093E60133
:101310000C972CF41092E7011092E60118CF40933D
:10132000E2015093E3016093E4017093E501E2E090
:10133000F0E0F093DF01E093DE0132CE440F551F61
:10134000661F771F41600296349623CF440F551FC6
:10135000661F771FF8CF0197959587959093E701C2
:101360008093E6010C972CF41092E7011092E601AD
:1013700032CF4093E2015093E3016093E401709314
:10138000E50190CE440F551F661F771F41602385EE
:1013900034853496235031092530310538F40296CE
:1013A0002CCF440F551F661F771FF1CFCD0101973A
:1013B000959587959093E7018093E60140972CF4EB
:1013C0001092E7011092E60131CF4093E201509371
:1013D000E3016093E4017093E5018AE090E064CE5C
:1013E000EF28B1F40197A1F4880C991CAA1CBB1C2E
:1013F00078CF1093E7010093E6018092E20190928A
:10140000E301A092E401B092E50183E090E04CCECC
:10141000E091E801F091E9018091EA019091EB01FE
:10142000181619060CF07EC03C822B8282819381B3
:1014300089974E9708F076C082E090E09C838B837A
:10144000848195810B970A9708F06CC083E090E047
:101450009C838B831A8219824CEB51E0BE016F5F33
:101460007F4FCE0103960E94FE008C01892B09F06C
:1014700059C04CEB51E0BE016F5F7F4FCE01039628
:101480000E94FE00019709F04DC0812C912C54015F
:101490002091EA013091EB018B819C8182179307A7
:1014A0000CF0E2C04CEB51E0BE016F5F7F4FCE010C
:1014B00003960E94FE007C010330110539F14CEBCC
:1014C00051E0BE016F5F7F4FCE0103960E94FE0088
:1014D0006C010330110561F44CEB51E0BE016F5F0C
:1014E0007F4FCE0103960E94FE00C816D906D1F4A4
:1014F000E114F10409F4ABC0EA94EF2899F4CD2883
:1015000089F4880C991CAA1CBB1CABC04CEB51E0A5
:10151000BE016F5F7F4FCE0103960E94FE00E8166A
:10152000F90669F2E091E801F091E9018281938185
:10153000C697869778F5848195814B97459750F5A6
:10154000DF0116967F0126ECE20EF11C20E030E070
:1015500040E050E060E070E080E090E00D911C9190
:1015600011970950110908301105A0F412960D9138
:101570001C911397015111090D30110508F483C016
:1015800012960D911C911397045011090530110505
:1015900008F49EC082819381895791098335910512
:1015A00068F580915603893348F184819581CA9703
:1015B000899720F59F012A5F3F4FC12CD12C7601DE
:1015C00043E050E0D9016D917C9111976A50710907
:1015D0006930710598F412966D917C91139766515C
:1015E00071096131710508F477C012966D917C9193
:1015F000665071096730710508F49DC080915603EB
:10160000823209F09DC0828193810A97099708F080
:1016100097C0A0915603B0E0A150B048AA0FBB1FDD
:10162000AE0FBF1F8D919C910A97099708F088C053
:101630001092E7011092E6014092E2015092E3011C
:101640006092E4017092E50188E090E02DCDCA94AB
:10165000CD2809F067CF880C991CAA1CBB1C689484
:1016600080F80F5F1F4F14CF1093E7010093E6013E
:101670008092E2019092E301A092E401B092E50130
:1016800084E090E011CD01E00E94C010216014962A
:10169000EA16FB0609F062CF2093E2013093E301E2
:1016A0004093E4015093E50100E20E94DB10209397
:1016B000E0013093E10187E090E09093DF018093B7
:1016C000DE0180E390E09093E7018093E60168CC2F
:1016D00001E00E94C010DBCFD701C601880F991F1F
:1016E000AA1FBB1F6C017D016894C0F84E5F5F4F5D
:1016F0002C5F3F4F4B33510509F064CF9F012A58AF
:101700003F4FD9012D913C912A50310929303105A3
:1017100008F074CF2CE130E03093E7012093E6012C
:10172000C092E201D092E301E092E401F092E5017F
:101730008CE090E0B9CCCC0CDD1CEE1CFF1CD6CFAD
:1017400082819381895791098335910560F5809154
:101750005603813240F184819581CA97899718F5A3
:101760009F012A5F3F4FC12CD12C760143E050E00E
:10177000D9016D917C9111976A5071096930710599
:1017800090F412966D917C911397665171096131B5
:10179000710580F112966D917C91665071096730E8
:1017A000710508F454C0828193818C549109C597C6
:1017B00008F081C080915603843009F04DC08481C7
:1017C00095818097479708F047C086819781099750
:1017D000099708F041C01092E7011092E60140928B
:1017E000E2015092E3016092E4017092E5018BE026
:1017F00090E05ACCD701C601880F991FAA1FBB1FC2
:101800006C017D016894C0F84E5F5F4F2C5F3F4FC5
:101810004332510509F0ACCF9F012A5B3F4FD901FC
:101820002D913C912A5031092930310508F0BBCF68
:1018300020E130E03093E7012093E601C092E2011D
:10184000D092E301E092E401F092E501FDCECC0CF0
:10185000DD1CEE1CFF1CD8CF80915603843458F158
:101860008481958189549109C39728F59F012A5F46
:101870003F4FBF016A577F4FC12CD12C7601D90150
:101880004D915C911197495051094930510598F497
:1018900012964D915C911397465151094131510572
:1018A00008F48BC012964D915C9146505109473017
:1018B000510508F4A1C08091EA019091EB0198874D
:1018C0008F8306970CF478C1DF011296BE83AD8337
:1018D00095ECC92E9DE9D92E9CE1E92E91E8F92ECF
:1018E00003E010E0ED81FE8164817581A080B1800C
:1018F00090E080E00E94720F69877A878B879C87CF
:10190000B50190E080E00E94720F4B015C012DEC6C
:101910003CEC4CE45FE30E9424109B01AC01698520
:101920007A858B859C850E94C50EF0E0E0E087FDFE
:1019300016C02DEC3CEC4CE45FE369857A858B8521
:101940009C850E9424109B01AC01C501B4010E943A
:10195000C50EE2E0F0E087FD02C0E1E0F0E0A701A3
:10196000960163E971E080E091E00E9491106F01BF
:10197000FF0FEE08FF08C626D726E826F9260F5FD8
:101980001F4F8D819E8102969E838D83AF81B88586
:101990000A171B0709F0A6CFC092E201D092E3011B
:1019A000E092E401F092E501E0E2F0E0F093E7017B
:1019B000E093E6018FEF9FEF77CBD701C601880F49
:1019C000991FAA1FBB1F6C017D016894C0F82C5F92
:1019D0003F4F2617370709F052CFE0E2F0E0F093CF
:1019E000E701E093E601C092E201D092E301E092C8
:1019F000E401F092E501FBCECC0CDD1CEE1CFF1CDB
:101A0000E6CF873EF8E19F07FFEFAF07B10509F486
:101A10000FC18D3D9242AF4FB10509F0EDCA8DE384
:101A200091E00E94820387E69AC0853BEAE49E0724
:101A3000EFEFAE07B10509F413C1A0F4873C28E32A
:101A400092072FEFA207B10509F404C18D3B924420
:101A5000AF4FB10509F0D0CA80E891E00E9482033F
:101A600087E07DC08D3AF2E59F07FFEFAF07B10534
:101A700009F4FCC0853A9A45AF4FB10509F0BCCADC
:101A80008EE791E00E94820386E069C08D35E2EA2C
:101A90009E07EFEFAE07B10509F45CC050F585383D
:101AA0002AE792072FEFA207B10509F4C7C068F42F
:101AB00087399846AF4FB10509F09ECA82E791E099
:101AC0000E9482031092DD014CC08F3620E99207FC
:101AD0002FEFA207B10509F49FC087369849AF4F91
:101AE000B10509F089CA87E691E00E9482038DE67C
:101AF00036C08D33F2EC9F07FFEFAF07B10509F455
:101B000079C0A0F48735E8EA9E07EFEFAE07B1058C
:101B100009F47CC08F34904BAF4FB10509F06CCA0B
:101B20008AE691E00E9482038EE619C08F3120EE92
:101B300092072FEFA207B10509F462C08D31924ED2
:101B4000AF4FB10509F058CA8EE291E00E948203BE
:101B500085E605C087E291E00E94820384E68093D7
:101B6000DD016091DD0187E593E00E94EA020E94B9
:101B7000AC024B015C018CE2C82EDD24D394E12C35
:101B8000F12C0E94AC02681979098A099B09683E08
:101B9000734081059105A8F3F1E0CF1AD108E1085F
:101BA000F10828EE820E23E0921EA11CB11CC11484
:101BB000D104E104F10429F782E080938A021092B3
:101BC000560380E090E0892B09F4A9C90E94AF0177
:101BD000882309F4A4C90E940000A1C988E391E008
:101BE0000E94820386E6BBCF87E491E00E948203D5
:101BF00088E6B5CF8DE491E00E94820389E6AFCFFD
:101C00008AE591E00E9482038AE6A9CF8FE591E000
:101C10000E9482038BE6A3CF84E691E00E948203B8
:101C20008CE69DCF84E791E00E94820381E097CF0C
:101C300086E791E00E94820382E091CF88E791E0FD
:101C40000E94820383E08BCF8AE791E00E948203A7
:101C500084E085CF8CE791E00E94820385E07FCF0E
:101C600082E891E00E94820388E079CF84E891E0E5
:101C70000E94820389E073CF86E191E0909358033C
:101C8000809357038091DB019091DC01875593404D
:101C900071F4E0916A03F0916B03908180916C0381
:101CA0008095892380831092DC011092DB010895D6
:101CB0005058BB27AA270E94700E0C94EA0F0E946E
:101CC000DC0F38F00E94E30F20F039F49F3F19F445
:101CD00026F40C94D90F0EF4E095E7FB0C94D30F87
:101CE000E92F0E94FB0F58F3BA17620773078407A6
:101CF000950720F079F4A6F50C941D100EF4E095EC
:101D00000B2EBA2FA02D0B01B90190010C01CA01B5
:101D1000A0011124FF27591B99F0593F50F4503E60
:101D200068F11A16F040A22F232F342F4427585F52
:101D3000F3CF469537952795A795F0405395C9F76A
:101D40007EF41F16BA0B620B730B840BBAF0915022
:101D5000A1F0FF0FBB1F661F771F881FC2F70EC0C1
:101D6000BA0F621F731F841F48F487957795679594
:101D7000B795F7959E3F08F0B0CF9395880F08F080
:101D80009927EE0F9795879508950E94AF0F08F455
:101D900081E008950E94DE0E0C94EA0F0E94E30F8A
:101DA00058F00E94DC0F40F029F45F3F29F00C94BA
:101DB000D30F51110C941E100C94D90F0E94FB0FDD
:101DC00068F39923B1F3552391F3951B550BBB276A
:101DD000AA2762177307840738F09F5F5F4F220FAF
:101DE000331F441FAA1FA9F335D00E2E3AF0E0E8A6
:101DF00032D091505040E695001CCAF72BD0FE2FF0
:101E000029D0660F771F881FBB1F26173707480783
:101E1000AB07B0E809F0BB0B802DBF01FF2793583B
:101E20005F4F3AF09E3F510578F00C94D30F0C941D
:101E30001E105F3FE4F3983ED4F38695779567953F
:101E4000B795F7959F5FC9F7880F911D9695879570
:101E500097F90895E1E0660F771F881FBB1F62178F
:101E600073078407BA0720F0621B730B840BBA0B4D
:101E7000EE1F88F7E09508950E94430F6894B11112
:101E80000C941E1008950E94031088F09F5798F03C
:101E9000B92F9927B751B0F0E1F0660F771F881F6F
:101EA000991F1AF0BA95C9F714C0B13091F00E9489
:101EB0001D10B1E008950C941D10672F782F88270E
:101EC000B85F39F0B93FCCF3869577956795B395B0
:101ED000D9F73EF490958095709561957F4F8F4F1F
:101EE0009F4F0895E89409C097FB3EF49095809524
:101EF000709561957F4F8F4F9F4F9923A9F0F92FD0
:101F000096E9BB279395F695879577956795B7954D
:101F1000F111F8CFFAF4BB0F11F460FF1BC06F5F33
:101F20007F4F8F4F9F4F16C0882311F096E911C045
:101F3000772321F09EE8872F762F05C0662371F066
:101F400096E8862F70E060E02AF09A95660F771F7A
:101F5000881FDAF7880F9695879597F90895990F56
:101F60000008550FAA0BE0E8FEEF16161706E80763
:101F7000F907C0F012161306E407F50798F0621B84
:101F8000730B840B950B39F40A2661F0232B242B59
:101F9000252B21F408950A2609F4A140A6958FEF78
:101FA000811D811D089597F99F6780E870E060E0CA
:101FB00008959FEF80EC089500240A9416161706E2
:101FC00018060906089500240A941216130614062A
:101FD00005060895092E0394000C11F4882352F08D
:101FE000BB0F40F4BF2B11F460FF04C06F5F7F4F45
:101FF0008F4F9F4F089557FD9058440F551F59F02C
:102000005F3F71F04795880F97FB991F61F09F3FE5
:1020100079F087950895121613061406551FF2CF0E
:102020004695F1DF08C0161617061806991FF1CF5E
:1020300086957105610508940895E894BB27662785
:102040007727CB0197F908950E9437100C94EA0F77
:102050000E94DC0F38F00E94E30F20F0952311F06E
:102060000C94D30F0C94D90F11240C941E100E94C1
:10207000FB0F70F3959FC1F3950F50E0551F629FC2
:10208000F001729FBB27F00DB11D639FAA27F00DD1
:10209000B11DAA1F649F6627B00DA11D661F829FF8
:1020A0002227B00DA11D621F739FB00DA11D621FDD
:1020B000839FA00D611D221F749F3327A00D611DFA
:1020C000231F849F600D211D822F762F6A2F1124DC
:1020D0009F5750409AF0F1F088234AF0EE0FFF1F0F
:1020E000BB1F661F771F881F91505040A9F79E3F66
:1020F000510580F00C94D30F0C941E105F3FE4F355
:10210000983ED4F3869577956795B795F795E795BB
:102110009F5FC1F7FE2B880F911D9695879597F9C4
:102120000895DB018F939F930E94B510BF91AF91EB
:10213000A29F800D911DA39F900DB29F900D112421
:10214000089597FB072E16F4009407D077FD09D069
:102150000E94F61007FC05D03EF4909581959F4FA4
:102160000895709561957F4F08950E941011A59F65
:10217000900DB49F900DA49F800D911D1124089582
:10218000002E083090F0982F872F762F652F542F30
:10219000432F322F22270850F4CF220F331F441F22
:1021A000551F661F771F881F991F0A95B2F7002DCC
:1021B000089597FD1094002E083098F00850232FB2
:1021C000342F452F562F672F782F892F912DF4CF3D
:1021D0001594979587957795679557954795379572
:1021E00027950A95AAF71124002D0895AA1BBB1B59
:1021F00051E107C0AA1FBB1FA617B70710F0A61B07
:10220000B70B881F991F5A95A9F780959095BC0127
:10221000CD010895EE0FFF1F0590F491E02D099474
:10222000A29FB001B39FC001A39F700D811D112417
:10223000911DB29F700D811D1124911D089510E014
:10224000C2E6D0E004C0FE010E940A112196C33606
:08225000D107C9F7F894FFCF94
:1022580000000000E5018D0072013202A301810136
:10226800950100000000EA028D007F03E9024603A1
:102278005E03D1020D0A004F4E2F4F4646004655C9
:102288004E432F53544F5000564F4C2B004641534A
:1022980054204241434B0050415553450046415359
:1022A8005420464F525741524400444F574E00560F
:1022B8004F4C2D0055500045510053542F52455056
:1022C800540030003100320033003400350036004D
:1022D8003700380039004E4F20425554544F4E00B5
:00000001FF
